{
  "contractName": "Lottery",
  "abi": [
    {
      "inputs": [],
      "stateMutability": "nonpayable",
      "type": "constructor"
    },
    {
      "inputs": [
        {
          "internalType": "uint256",
          "name": "",
          "type": "uint256"
        }
      ],
      "name": "customer",
      "outputs": [
        {
          "internalType": "address payable",
          "name": "",
          "type": "address"
        }
      ],
      "stateMutability": "view",
      "type": "function",
      "constant": true
    },
    {
      "inputs": [],
      "name": "manager",
      "outputs": [
        {
          "internalType": "address",
          "name": "",
          "type": "address"
        }
      ],
      "stateMutability": "view",
      "type": "function",
      "constant": true
    },
    {
      "inputs": [],
      "name": "payEthe",
      "outputs": [],
      "stateMutability": "payable",
      "type": "function",
      "payable": true
    },
    {
      "inputs": [],
      "name": "getBlancd",
      "outputs": [
        {
          "internalType": "uint256",
          "name": "",
          "type": "uint256"
        }
      ],
      "stateMutability": "view",
      "type": "function",
      "constant": true
    },
    {
      "inputs": [],
      "name": "random",
      "outputs": [
        {
          "internalType": "uint256",
          "name": "",
          "type": "uint256"
        }
      ],
      "stateMutability": "view",
      "type": "function",
      "constant": true
    },
    {
      "inputs": [],
      "name": "winnerSelect",
      "outputs": [],
      "stateMutability": "nonpayable",
      "type": "function"
    },
    {
      "inputs": [],
      "name": "costmerList",
      "outputs": [
        {
          "internalType": "uint256",
          "name": "",
          "type": "uint256"
        }
      ],
      "stateMutability": "view",
      "type": "function",
      "constant": true
    }
  ],
  "bytecode": "0x608060405234801561001057600080fd5b50336000806101000a81548173ffffffffffffffffffffffffffffffffffffffff021916908373ffffffffffffffffffffffffffffffffffffffff16021790555061066d806100606000396000f3fe6080604052600436106100705760003560e01c80635ec01e4d1161004e5780635ec01e4d146100e257806379a083c11461010d578063a22cd09f14610138578063d2c143db1461017557610070565b8063379a603814610075578063481c6a75146100a05780635d6bbfe4146100cb575b600080fd5b34801561008157600080fd5b5061008a61017f565b6040516100979190610439565b60405180910390f35b3480156100ac57600080fd5b506100b56101e0565b6040516100c29190610495565b60405180910390f35b3480156100d757600080fd5b506100e0610204565b005b3480156100ee57600080fd5b506100f7610320565b6040516101049190610439565b60405180910390f35b34801561011957600080fd5b5061012261035a565b60405161012f9190610439565b60405180910390f35b34801561014457600080fd5b5061015f600480360381019061015a91906104e1565b610367565b60405161016c919061052f565b60405180910390f35b61017d6103a6565b005b60008060009054906101000a900473ffffffffffffffffffffffffffffffffffffffff1673ffffffffffffffffffffffffffffffffffffffff163373ffffffffffffffffffffffffffffffffffffffff16146101da57600080fd5b47905090565b60008054906101000a900473ffffffffffffffffffffffffffffffffffffffff1681565b60008054906101000a900473ffffffffffffffffffffffffffffffffffffffff1673ffffffffffffffffffffffffffffffffffffffff163373ffffffffffffffffffffffffffffffffffffffff161461025c57600080fd5b6003600180549050101561026f57600080fd5b600060018054905061027f610320565b6102899190610579565b90506000600182815481106102a1576102a06105aa565b5b9060005260206000200160009054906101000a900473ffffffffffffffffffffffffffffffffffffffff1690508073ffffffffffffffffffffffffffffffffffffffff166108fc6102f061017f565b9081150290604051600060405180830381858888f1935050505015801561031b573d6000803e3d6000fd5b505050565b6000444260018054905060405160200161033c939291906105fa565b6040516020818303038152906040528051906020012060001c905090565b6000600180549050905090565b6001818154811061037757600080fd5b906000526020600020016000915054906101000a900473ffffffffffffffffffffffffffffffffffffffff1681565b670de0b6b3a76400003410156103bb57600080fd5b6001339080600181540180825580915050600190039060005260206000200160009091909190916101000a81548173ffffffffffffffffffffffffffffffffffffffff021916908373ffffffffffffffffffffffffffffffffffffffff160217905550565b6000819050919050565b61043381610420565b82525050565b600060208201905061044e600083018461042a565b92915050565b600073ffffffffffffffffffffffffffffffffffffffff82169050919050565b600061047f82610454565b9050919050565b61048f81610474565b82525050565b60006020820190506104aa6000830184610486565b92915050565b600080fd5b6104be81610420565b81146104c957600080fd5b50565b6000813590506104db816104b5565b92915050565b6000602082840312156104f7576104f66104b0565b5b6000610505848285016104cc565b91505092915050565b600061051982610454565b9050919050565b6105298161050e565b82525050565b60006020820190506105446000830184610520565b92915050565b7f4e487b7100000000000000000000000000000000000000000000000000000000600052601260045260246000fd5b600061058482610420565b915061058f83610420565b92508261059f5761059e61054a565b5b828206905092915050565b7f4e487b7100000000000000000000000000000000000000000000000000000000600052603260045260246000fd5b6000819050919050565b6105f46105ef82610420565b6105d9565b82525050565b600061060682866105e3565b60208201915061061682856105e3565b60208201915061062682846105e3565b60208201915081905094935050505056fea2646970667358221220d3c534201c914e8629e0278ea80a5e4c9be8b5e3955f3b1c2e523c300b6fab3564736f6c634300080a0033",
  "immutableReferences": {},
  "source": "// SPDX-License-Identifier: MIT\npragma solidity ^0.8.10;\n\ncontract Lottery{\n        address public manager;\n\n        address payable[] public customer;\n\n        constructor(){\n            manager = msg.sender;\n        }\n        function payEthe() external payable {\n            require(msg.value >= 1 ether);\n\n            customer.push( payable(msg.sender));\n        }\n        function getBlancd() public view returns(uint){\n            require(msg.sender == manager);\n            return address(this).balance;\n\n        }\n\n        function random() public view returns(uint){\n            return uint(keccak256(abi.encodePacked(block.difficulty,block.timestamp,customer.length)));\n        }\n        function winnerSelect()public {\n              require(msg.sender==manager);\n              require(customer.length>=3);\n              uint  r = random()%customer.length;\n              address payable winner;\n              winner = customer[r];\n              winner.transfer(getBlancd() );\n        }\n\n        function costmerList() public view returns(uint){\n            return customer.length;\n        }\n        \n\n}\n",
  "sourcePath": "/home/lm/Desktop/dEvFiRm/Running Project/etherium/Lottery/contracts/Lottery.sol",
  "compiler": {
    "name": "solc",
    "version": "0.8.10+commit.fc410830.Emscripten.clang"
  },
  "schemaVersion": "3.4.3",
  "updatedAt": "2021-12-16T08:45:49.782Z",
  "networkType": "ethereum",
  "devdoc": {
    "kind": "dev",
    "methods": {},
    "version": 1
  },
  "userdoc": {
    "kind": "user",
    "methods": {},
    "version": 1
  }
}